{
  "transactions": [
    {
      "hash": "0x3665f244f977d1efc1d97483258aae03fabca9902418fb106acac3038c572a98",
      "transactionType": "CALL",
      "contractName": null,
      "contractAddress": "0x95c8cffe85aaa8984f73e6f0604b80a320a99ff1",
      "function": "mintNft(string)",
      "arguments": [
        "\"ipfs://bafybeig37ioir76s7mg5oobetncojcm3c3hxasyd4rvid4jqhy4gkaheg4/?filename=0-PUG.json\""
      ],
      "transaction": {
        "from": "0xffde04da08618747909930b928ff24aa32929271",
        "to": "0x95c8cffe85aaa8984f73e6f0604b80a320a99ff1",
        "gas": "0x3d60d",
        "value": "0x0",
        "input": "0xda86f4a900000000000000000000000000000000000000000000000000000000000000200000000000000000000000000000000000000000000000000000000000000057697066733a2f2f62616679626569673337696f6972373673376d67356f6f6265746e636f6a636d3363336878617379643472766964346a71687934676b61686567342f3f66696c656e616d653d302d5055472e6a736f6e000000000000000000",
        "nonce": "0x4c",
        "chainId": "0xaa36a7"
      },
      "additionalContracts": [],
      "isFixedGasLimit": false
    }
  ],
  "receipts": [
    {
      "status": "0x1",
      "cumulativeGasUsed": "0x6a2765",
      "logs": [
        {
          "address": "0x95c8cffe85aaa8984f73e6f0604b80a320a99ff1",
          "topics": [
            "0xddf252ad1be2c89b69c2b068fc378daa952ba7f163c4a11628f55a4df523b3ef",
            "0x0000000000000000000000000000000000000000000000000000000000000000",
            "0x000000000000000000000000ffde04da08618747909930b928ff24aa32929271",
            "0x0000000000000000000000000000000000000000000000000000000000000000"
          ],
          "data": "0x",
          "blockHash": "0x520795691b536289904d9edfe18447d662fb71d80ec75938785f0508c0103603",
          "blockNumber": "0x611185",
          "transactionHash": "0x3665f244f977d1efc1d97483258aae03fabca9902418fb106acac3038c572a98",
          "transactionIndex": "0x31",
          "logIndex": "0x50",
          "removed": false
        }
      ],
      "logsBloom": "0x00000000000000000000000000000000000000000000000000000000000000000000000000000000000000000000000000000000000000000000000000000000000000800000000000000008000000000000000000000400000000000000000000000000020000000000000000000800000000000000000000000010000000000000000000000000000000000000000002000000000000000000000000000000000000000000000020000000000000000000000000000000000000000000000000000002000000000000000000000000020020000000000000000000000020000000000000000000000000000000000000000000000000000000000000000000",
      "type": "0x0",
      "transactionHash": "0x3665f244f977d1efc1d97483258aae03fabca9902418fb106acac3038c572a98",
      "transactionIndex": "0x31",
      "blockHash": "0x520795691b536289904d9edfe18447d662fb71d80ec75938785f0508c0103603",
      "blockNumber": "0x611185",
      "gasUsed": "0x2c6fe",
      "effectiveGasPrice": "0x518c94b02",
      "from": "0xffde04da08618747909930b928ff24aa32929271",
      "to": "0x95c8cffe85aaa8984f73e6f0604b80a320a99ff1",
      "contractAddress": null
    }
  ],
  "libraries": [],
  "pending": [],
  "returns": {},
  "timestamp": 1721731299,
  "chain": 11155111,
  "commit": "26902e0"
}